:10000000E0010020CD16000073130000DB13000098
:1000100000000000000000000000000000000000E0
:10002000000000000000000000000000A716000013
:100030000000000000000000B3160000D51600000C
:10004000D7160000D9160000A5010000DB1600003D
:10005000DD160000DF160000E1160000E3160000C8
:10006000E5160000E7160000E9160000EB16000098
:1000700059110000ED160000EF160000F116000007
:10008000F3160000F5160000F7160000B910002066
:04009000F91600005D
:1000940008B4024B9C4608BC6047C04633050020A8
:1000A40008B4024B9C4608BC6047C046510500207A
:1000B40008B4024B9C4608BC6047C0466305002058
:1000C40008B4024B9C4608BC6047C046D9070020D0
:1000D40008B4024B9C4608BC6047C0465914002033
:1000E40008B4024B9C4608BC6047C0464519002032
:1000F40008B4024B9C4608BC6047C0463514002037
:1001040008B4024B9C4608BC6047C0460515002055
:1001140008B4024B9C4608BC6047C04671140020DA
:1001240008B4024B9C4608BC6047C046191900201D
:1001340008B4024B9C4608BC6047C0460105002039
:1001440008B4024B9C4608BC6047C04671020020BC
:1001540008B4024B9C4608BC6047C046451B0020BF
:1001640008B4024B9C4608BC6047C04645040020C6
:1001740008B4024B9C4608BC6047C0462F030020CD
:1001840008B4024B9C4608BC6047C0461F1A0020B6
:1001940072B6002080490860032083490860FEE7A6
:1001A4007E48202101608149CA68052A05DAC06AAF
:1001B400CA68531CCB605200885270477849142097
:1001C400086005208864012048654866886575498B
:1001D4000022D2438A61C863754B4B624A61202274
:1001E4008A60754A04231360022313600860704711
:1001F4007048042101600221016000206649086002
:10020400704738B5694DE868052801DA002032BD29
:10021400FFF7EEFF0024022008E0410069180A8875
:10022400891E0988511A89B26418401CE9688842F9
:10023400F3DB624800F020F9E968891E4843400076
:10024400210001F03DF804005D4800F015F940017B
:1002540061084018210001F033F82038C00000F094
:1002640002F8012032BD57498860574808650020CC
:100274004D4A106055480860704730B500F076FB71
:10028400534854490968E022D2000A4021D0802111
:1002940049008A421BD049008A4210D0C0218900FB
:1002A4008A4204D0E021C9008A4214D015E00068D3
:1002B400000E132801DB484870474848704700681F
:1002C400000E132801DB46487047464870474648ED
:1002D400704746487047464870470020704710B53D
:1002E40044498A6B002A00D00122434B8B630B687C
:1002F400424BC018DB4398428041C00F0B6807246F
:10030400A34318430860120601D00020886310BD7F
:1003140070B50400002500F015F93949394EB4428E
:1003240006D0394EB44205D0384EB44205D008E068
:100334000B6804E00868830801E0086803090320E7
:10034400184000280FD0022806D002D3032806D074
:1003540018E080252D0215E02D48456812E000F0D4
:1003640003FF45080EE02748844202D108681021A3
:1003740004E02548844205D108681421C84001D00E
:10038400FA25AD00280070BD22494A68D20702D47C
:100394000A680240FCD1704728000140180001405F
:1003A400B860004004000140206100406C1F002040
:1003B4000200050080E100E000E100E0408104006B
:1003C400700714000440084003030000050C0000FB
:1003D400FC81E00F14800C40804F120040420F005B
:1003E40040B56400C0CF6A00C0D8A700809FD50084
:1003F400406F400104000C40711B0000FFDB0BFF49
:1004040028800C400200180003001A0004001C009D
:100414005C02002050800C4070B502000E000020E9
:100424007A4C1105090F01290DD0022917D003298F
:1004340008D0062915D0072916D0082917D00A296B
:1004440018D070BD3834D103CD0E002801D0FFF789
:100454009BFF320029002000FFF70FFF70BD3C34E2
:10046400F1E750340120EEE758341020EBE75C3418
:10047400A00DE8E77034E6E738B50200634C0F25B9
:1004840063496448F8239B0313404FD080229202AF
:10049400934221D0520093421AD0C02212039342B5
:1004A40030D0E0221203934234D08022520393428C
:1004B40017D0A022520393421DD08A1E93420ED01D
:1004C400C21E934214D080229203934225D036E078
:1004D40000F072FE216808E000F046FE32BD08001C
:1004E40006E00800FFF714FF216E0D40E84032BD1E
:1004F400FFF70EFF32BDFFF70BFFA16E8907890FCF
:10050400C84032BDA44800F01DF8072802D00828CE
:100514000CD014E0FFF7B4FE32BDA04800F012F88E
:10052400022809D0032804D0082808D100F044FE8A
:1005340032BD8020000232BD9948406832BD00209F
:1005440032BD000030B5010001200322954C09079B
:10055400090F491E062956D801A56D5CAF4400BF9A
:1005640008364C6CA68084006068A849014080204D
:100574000001814209D0400081422FD040008142D5
:100584003FD04003814202D003E0042030BD0A2062
:1005940030BD052030BD2168114001291ED002D391
:1005A40003290CD02DD32168C9030CE021680C2544
:1005B4000D40042D12D0082D23D00C2D01D106207E
:1005C40030BD2168C9021FD50B2030BD21683023FE
:1005D4000B40102B02D0202B13D030BD032030BD94
:1005E400072030BD6168E023DB020B4001048B422D
:1005F40007D041048B42F1D081048B4204D10920FD
:1006040030BD022030BD002030BD000008800C4009
:100614000200180003001A007AB582B00200032613
:100624000320002100911207120F01920125914C21
:10063400521E08D0521E012A2ED9921E65D0D21EF7
:1006440000D17EE07FBD6A46127A022A08D0032ACE
:1006540018D0042A18D0052A19D00A2A19D07FBD27
:10066400042600200122012100F0D2F88248FFF77D
:1006740036FE2660A0688149086000F075FDFFF72A
:100684002EFE7FBD0120EDE702260220EAE70126C7
:10069400E8E705200526E5E76846007A012808D042
:1006A400022812D0032817D006281CD00B2821D0EA
:1006B4007FBD0198022860681ED1714A024011432F
:1006C40000980004084360607FBD012201210020DE
:1006D40000F09EF80221ECE701220121012000F044
:1006E40097F80121E5E7012202216648FFF7C5FDDD
:1006F4000321DEE70095DCE7634A024088001043EB
:1007040000990905014361607FBD6846007A0128AC
:1007140004D0B6D303280DD005D37FBD6068302242
:1007240090430901EEE701220121002000F070F856
:100734000221F3E701220121012000F069F80121DF
:10074400ECE76846007A022804D003280DD0092873
:1007540016D07FBD01220121002000F059F840206D
:100764002060A068C0038CD4FBE701220121012092
:1007740000F04EF860202060A0688003E9D4FBE715
:1007840001220121052000F043F880202060A068A8
:100794004003DED4FBE7000006000C000733200012
:1007A4005C02002028800C4070B504003748002CFF
:1007B40006D0022C22D01DD3042C24D021D370BD0A
:1007C4000068C5B21120FFF7BDFE0600052E02D158
:1007D4002948FFF784FD60480168C90AC90222025A
:1007E4002A430A430260052E03D100F0BDFCFFF743
:1007F40076FD70BD00680004050EE3E700680002A2
:10080400FAE70068F8E74068DBE70000003C000412
:100814000123052800D9704770B501A4245CA744BE
:100824003830200428400120022401254B4E0029A1
:100834001BD03060002A19D0F068E840184015D168
:10084400FAE7042008240325F0E7102020240525D6
:10085400ECE7402080240725E8E718024400092536
:10086400E4E7980244001625E0E73460F0680349A1
:10087400086070BD24800C4000366E017C1F00208F
:10088400FCFFFEFF40800C40F3FFEFFFDC81E00F34
:10089400F8B53249486E00903A484866002200256F
:1008A400394803680124234200D001251020034263
:1008B40001D0284305004020034201D0284305000D
:1008C4000426334200D03543880D034201D0284327
:1008D4000500980202D5080D284305000D6002208A
:1008E4002A4D1D408702BD4213D0C702BD4206D027
:1008F4000703BD4208D04706BD420FD013E0CD68C0
:100904002D06FCD503250DE0CD68AD05FCD54E6064
:1009140009E0CD682D07FCD5486004E0CD686D0280
:10092400FCD505254D60234000D1086000980440A3
:1009340000D04A66F1BD10B51349154A12680A6021
:10094400144A136804241C43146030BF002802D0E6
:10095400FFF79EFF10BD03E00C800C4020800C408C
:100964000868400501D400F0FFFB10BD030001241A
:100974001D6801208840854314408C402C431C6032
:1009840030BD00000E5800007C1F0020003C000415
:100994002C800C4010ED00E0F1B583B008786A4675
:1009A40010726846007A002802D10220039A50602F
:1009B4000026039846624878002802D0402001901F
:1009C40000E00196487A002802D08020009000E0E0
:1009D4000096887A002801D0202200E00022C87AFC
:1009E400002801D0102300E000230879002802D059
:1009F4008024A40100E000244879002802D0802546
:100A04006D0500E00025087B002800D008268878C2
:100A14000706C878000438438F79BF020743C879B2
:100A240000023843097A01430198084300990143BD
:100A34000A4313431C4325432E4303980660684628
:100A4400007A002802D0012003994860FFBDF1B567
:100A54000026D079002802D080239B0300E00023E5
:100A6400107A002802D08024640300E00024507A25
:100A7400002801D0102500E00025907A002800D03D
:100A840004261078870650780006384397783F0488
:100A94000743D078000338431779BF0207435079DE
:100AA400000238439279024313431C4325432E43E7
:100AB4000098090140180663F1BD80B5FFF7E8FA14
:100AC400A8480168A84A0A400260FFF7E9FA01BD94
:100AD400F1B588B00121A548FFF79EFCA448006841
:100AE4003021884310210143A1480160C06B0121DA
:100AF40001439F48C16300F049FAE0219D484068E2
:100B040000F04EFC9B484068011D0160089909688B
:100B1400416208994968816208998968C1620899A3
:100B2400097B81779348406801001D310722CA7010
:100B340000240C714C71089A526902630C703430B1
:100B44000470846084700121C181C4700471447193
:100B540008990968C97981810325ED43202925D1A4
:100B64000122844B5B68DC331A60046144612023F6
:100B7400C45444628908C1610898006900780A0075
:100B840042430492491C414301910021039402947D
:100B940078484068826A9078D3781B061B0C184307
:100BA4001018069001206B4658700BE0402900D0C5
:100BB400D4E0704A5268DC321460D6E75B1CC37719
:100BC400107812180698824200D37CE0107800282E
:100BD4006ED0507805286CD1491C6648406828239B
:100BE4004B43C01834309378DB09037084609378E6
:100BF400C3701B071B0F6E4633706B461B788370E4
:100C040001233678B340C381D3789B079B0F0371CC
:100C1400137956793606360C334383810461446173
:100C24002027C4554462089E366976183778002F09
:100C34003ED00778002F1FD0039E761C03966E4685
:100C4400767846716E467678761C6F467E70DB1C2D
:100C54005E10B60FF3189B10089E3669765C7343DA
:100C6400C361444E76683F78F619D4363170049BDC
:100C7400C6699B19049318E0029F7F1C0297DB1C32
:100C840005935B109B0F059FDB199B105B1C36784B
:100C94007343C361374E76686F463F78F619D7368B
:100CA4003170019BC6699B1901938078042887DB06
:100CB40054E0042884D12F484068C37F9678B34217
:100CC40000D17BE74AE0019813300190294840683D
:100CD400826A1279C07F824240D103293ED10398AF
:100CE40004283BD20298042838D2FFF7D1F92048CF
:100CF4008069182101431E4881612B4E0120F06058
:100D040009212A48FFF788FC30680121014331603A
:100D140079480168A02292000A430260FFF7C8F9EB
:100D24000499019800F044F8002815D1734804612F
:100D3400C02149010161016801220A430260802047
:100D440000036F4908606F4908600020FFF7B8F995
:100D5400FFF7A6F9002002E0FFF7A2F9280009B086
:100D6400F0BD0000040810407DF8FFFF00230200DE
:100D740028800C40E801002010B583480168012256
:100D84009143016001680C22914301600120A84C49
:100D940021680143216021680140FCD100F0B4F8CE
:100DA40020680028FCD510BDD0800C4007332000FB
:100DB400F3B581B0504F0120B861FFF7DDFFFFF7B5
:100DC40087F93220FFF78CF9FFF792F99948006808
:100DD40003210143974801600068042101439548B9
:100DE40001600068944901409248016043480068EA
:100DF4001E218843222101434048016001981128A3
:100E040001D384B200E01024A005800D3B49C861E1
:100E14008A4949680D6D112D00D210252904084313
:100E24003649086201200090012680203043C0B278
:100E3400FFF766F9002812D04179009A91420ED149
:100E44006419A4B2C569112D00D210252A046005C5
:100E5400400D10437A4A89005118091F0860761C16
:100E6400042EE2DB0098401C00900428DCDBFF2009
:100E740082300199029A8918814201D2844202D3B4
:100E84000320C043FEBD1020FFF742F910201B4988
:100E940088608868C006FCD40020664908614861FF
:100EA400C861486300220021C943664B54011B19E1
:100EB400186018619960521C042AF6DB0026B04AB7
:100EC4007301D218106010619160761C042EF6DB59
:100ED400FFF7F3FD3868802189020143396003205C
:100EE400386178617868C00701D5012000E00220EC
:100EF400F8600020FEBD000000400C4008001040D7
:100F040080E200E000E100E0F8B50600904F786868
:100F140000213200002300F045FA04000D0028D11E
:100F2400002C26D130000A2100F0CAF90600B86866
:100F340000213200002300F035FA04000D0018D11E
:100F4400002C16D1FC6830000A2100F0B9F9020027
:100F540000232000002100F025FA04000D0008E021
:100F6400401EFFF7DDF8200029007CA430CC2418B3
:100F74004D41854800218D42F2D88442F0D2A0B27E
:100F8400FFF7CEF8F1BD0000000E104030B587B079
:100F940003A87449102200F01FFA68460C2100F0DF
:100FA400FFF97848FFF768FA0400694DFA20400019
:100FB4002018FA21890000F083F92860734820186A
:100FC400734900F07DF9686072482018724900F096
:100FD40077F9A86071482018714900F071F9E86048
:100FE40002206946887101216E48FFF715FA6E4C9C
:100FF4009548E0616A4600212000FFF728FD03A917
:101004002000FFF7C9FC07B030BD684800888002A3
:101014008E49086070476648664941630121026849
:101024000A4302608A480160490741607047000032
:101034001000104000081040FFE7FFFFE801002007
:1010440004011040000910407B4CA00D2060401C9E
:10105400E0630620A063794DE90B0020FFF768F8F0
:101064002860774F77493800FFF762F82968000451
:10107400084328600D2020624020A06101252565D9
:101084007448072181616A0382600222C261D60228
:10109400714A1660016001E0FFF752F86F4800687A
:1010A400284008D1A803406829058842F4D30020C9
:1010B400FFF741FCF2E7A56569480660FFF766FFA4
:1010C400680744306749C162674981646749416080
:1010D40067490160674C443820600420FFF764FBD3
:1010E4006548FFF7F5FCFFF769F80025634EFFF745
:1010F40088F800280CD16248C178002902D0C17850
:10110400017005E06420FEF7EBFF6435B542EEDBC9
:10111400FFF76EF8B54206DBFA21C9000020FFF79D
:1011240017F8584860605848FFF71AF842203858B2
:10113400FFF71EF8BF1CF86BFFF71AF853A0FFF770
:101144000FF8FFF762FFFFF766FFFFF719F800BF1C
:10115400BC00002007204E4908607047A015FFFF1F
:10116400FFFFFFFF1014000080B500F025F8494987
:1011740009680907090FC8404749086002BD000013
:10118400000B10404081040061EA000020A1070028
:1011940040420F0050C30000A086010088130000E5
:1011A400102700000002040000000140F881E00F55
:1011B40008000C40711B000000B539493948CA6A5F
:1011C400394B13408022120193420DD052009342B6
:1011D40008D05200934203D05203934206D007E052
:1011E400406822E0D00020E000681EE02B481CE0AC
:1011F400C868E022D200024014D0880D82420FD089
:10120400400082420AD0C0208000824204D0080DEF
:10121400824209D1254808E0254806E0254804E033
:10122400254802E0254800E000200968C903490F69
:10123400491C00F045F800BD08800C40DC0000208B
:10124400B281E00F0082E00FFFFF0000F8010020F0
:1012540004200C400000084000E100E0D0600040A1
:1012640080E100E059110000B9100020A501000040
:101274009501000008ED00E0401500003075000005
:10128400CC1D00200400FA05201400000D0A000003
:101294001800084004800C40841F002000366E01B2
:1012A40000800C405C020020003C0004406F4001C0
:1012B400809FD500C0D8A70040B56400804F1200BD
:1012C4000022030A8B420BD203098B4219D2430832
:1012D4008B422ED2411A00D2014652411046704729
:1012E400FF2209023FD012068B4205D312120902D3
:1012F4008B4201D31212090203098B4219D300E075
:10130400090AC3098B4201D3CB01C01A5241830994
:101314008B4201D38B01C01A524143098B4201D342
:101324004B01C01A524103098B4201D30B01C01A6D
:101334005241C3088B4201D3CB00C01A52418308E7
:101344008B4201D38B00C01A524143088B4201D314
:101354004B00C01A5241884200D3401A5241CFD2A6
:1013640001461046704708B5C046C04608BDFEE7B2
:10137400130030B414001500103902D310393CC0E6
:10138400FCD2490700D30CC000D504C0890002D3A5
:101394000280801C002900D5027030BC7047000018
:1013A4000022E5E730B4434351435D18010C0C00BF
:1013B400130C5C432D1980B2434392B25143002471
:1013C400C918644124040B04090C09195043C018BA
:1013D400694130BC7047FEE770B4103A03D378C952
:1013E400103A78C0FBD2530701D318C918C001D5ED
:1013F40008C908C0D20704D30B880380891C801C49
:10140400002A01D50B78037070BC704701000000FE
:101414000000000000000000000000000D0A0D0A9A
:10142400424F4F544C4F4144455220766572736984
:101434006F6E20322E30362C204368697020494468
:10144400200000001201000202000040C41003004A
:10145400000001020001000009024300020100C073
:1014640032090400000102020000052400200105E5
:101474002401000104240202052406000107058258
:10148400034000FF09040100020A0000000705816F
:1014940002400000070501024000000004030904A3
:1014A4003403530069006C00690063006F006E0030
:1014B40020004C00610062006F0072006100740043
:1014C4006F007200690065007300200049006E001F
:1014D40063002E00000000004203450046004D005A
:1014E4003300320020005500530042002000430026
:1014F400440043002000730065007200690061002D
:101504006C00200070006F00720074002000640002
:10151400650076006900630065000000A014000007
:10152400A4140000DC14000000000000910400205A
:10153400AD0400200000000000000000481400007A
:101544005C14000020150000030000004C02002081
:101554002C15000000000000F8B40168421844682B
:10156400610851188368E40701D54C461B190C30F7
:1015740000908A422BD01578521C03262E4002D1AB
:101584001678F61C521C28090F2807D110780F3042
:10159400521C03E01778521C1F705B1C761EF9D195
:1015A4000028E6D01678521CAF0803253D40032DD1
:1015B40001D11578521C2D0275195D1B801CD8D0E1
:1015C4002E786D1C1E705B1C401ED2D0F8E700986C
:1015D400F2BC704770B40121002313E00468001DBD
:1015E4000C4202D04D466D1E64192360241D121F47
:1015F400042AFAD22500960701D52380AD1C0A409F
:1016040000D02B700268001D002AE7D170BC70471F
:1016140010B5074979441831064C7C44163404E06B
:10162400081D0A68891888470100A142F8D110BD35
:10163400080000004C0000009DFFFFFFE0000000D8
:10164400EC1C002018010000CC1D002088000000C4
:10165400E41E002010000000BC0000201000000068
:101664006C1F00200C0000007C1F00200000000004
:10167400E9FEFFFF82000000B42F0000E00100201B
:101684000120C046002801D0FFF7C2FF0020C04659
:10169400C046FFF7D9FC00F000F880B500F002F86E
:1016A40001BDFEE70746384600F002F8FBE7FEE717
:1016B4002021090326311820ABBEF9E7C046C046F5
:1016C400C046C046FFF7DCFF00480047C1160000D3
:1016D400FEE7FEE7FEE7FEE7FEE7FEE7FEE7FEE7DE
:1016E400FEE7FEE7FEE7FEE7FEE7FEE7FEE7FEE7CE
:1016F400FEE7FEE7FEE7200600C201000000080046
:10170400019003EC1C0020000110070D0A526561D2
:1017140064790D0A1520020D0A4F4B0950010D0A78
:101724003F1030024661696C0B110C101F424F4F81
:10173400544C4F414445522076657273696F6E2054
:10174400322E30362C2043686970204944202440CE
:101754000A0000010102020D0A4352433A1000FE3E
:1017640000366E010080000080F3088880F3098849
:101774008F46704770B50024E4438B48046000F042
:10178400C5FA8A4A01201060002151609163984A89
:101794009165984B9964596599655C6603259D66C6
:1017A40019609960944B19605960944D29609C624A
:1017B400934B02255D60260CDE61196019635D6040
:1017C400DE61D9609C611964A04BD961996019608C
:1017D4009F4C2165A1600A2525605C6A6407FCD1E1
:1017E400936C0340FCD1D061882090619163783080
:1017F4001060D1631520106211658020C001A949D1
:10180400086041680068FFF7AFFF70BD10B50300C2
:1018140003E00C781C70491C5B1C1400621E002C35
:10182400F7D110BDA04A9070516001205070002083
:101834007047F8B50400072500270026A8002100FA
:10184400C1400807000F0A2801DA303000E03730C1
:1018540095490978002902D09449885502E0C0B21C
:10186400102500F05AF86D1E761C002DE7D58E4821
:101874000078002803D08D48875500F066F8F1BD44
:1018840070B58B480024884D2934101112D06C7027
:10189400874E884B86223100012000F0E2F9682E41
:1018A4001035FCD00220285600280BD130780AE0ED
:1018B400401E07D081490A689206F9D5002801D054
:1018C400486900E00020C0B270BDF8B506000C0005
:1018D400764D00206870754F77463239464004BF14
:1018E400F9002C0ED14A100D6A683900701CFFF7FC
:1018F4008BFF0120F2BD644C2004012001F0A2FA08
:101904001E2004F7D0012CEEDA3210015AF9001E21
:10191400100310B5634C219610030CD0624908F8EB
:1019240010056070624B01228120100106FA6030BC
:10193400100305D1FBE75E8A1005D206FBD50862C9
:10194400108010030500564C201A10071BD02800E5
:1019540000E0401C013E200EFBD1471B524E3A00D2
:1019640029003000FFF74FFF482004504B3A003164
:10197400004A23E1F94A12064A1005FFF7C7FF6D32
:101984001C280E100AF9D1F1BD4448052901D101E2
:1019940021DC280321C170704780182E80E100E00B
:1019A40004000C4002000220C04311784906490E8D
:1019B400212900D0704780B5A0495278202A09D047
:1019C4000ED3222A0BD00BD200230722E66003F0A9
:1019D400B1F904E00C123BD61F02BD0603100B80C4
:1019E4000C40B860004004200C4000310413000196
:1019F400541016002012E0030A000218431378580A
:101A04004080B203000006000F5840086203102013
:101A14001EC00C5840521C8A42EAD3704772B688E2
:101A24004801680022D243914201D0491C01600060
:101A340068A8240808400440084081490868E81060
:101A440009401E086000D162B670479B2E1C080135
:101A54002291430160704710B58E03280B208A78C9
:101A6400540180221203C0231B0332100901D093B6
:101A74004900E09D4909591CE6129C56101D9442E8
:101A840001D18902C80F10BD08ED00E0CC1D002073
:101A9400E41E002080841E00210300200868280121
:101AA40080B5816C1008D100F004F801BD00F0315C
:101AB400061007F0B5842109068C4A8058140A5F81
:101AC4004C0578002D16D00569002D50302625458B
:101AD400707A4D86686E6106698789BE4200D93E78
:101AE400006068DC30006833432B612B681A4010B7
:101AF4004301430CE07C2410076468DC34246880D0
:101B040089031C140928680240144321432960F006
:101B1400E823046962202E734A01260378002B1EF1
:101B2400D0002C03D08389E3185B1E9E0983785B65
:101B3400010093604B009D5D192D6980273F063D90
:101B440040F60434432C431220142C61847864013D
:101B54001C19856865618078400118181CE0838928
:101B6400402006E418641EA609734320201600943E
:101B74005B4C009D65192F697F0F7F07F6041E4398
:101B84003E432E6183615C3003E31885685D3C103D
:101B940001201803B2161152180DF1BD30B554E1ED
:101BA40010B5C0B2FFF7FAFF0468280830FF202000
:101BB400205C00282FD0901F03D0F1042003F01FD5
:101BC400FF02E0081A5984302F2022A054636A19B6
:101BD400001FD060621649496820318A78052A13AB
:101BE400D10978042910D1A17849012278002A0367
:101BF400D02E4A5050E08903E03708180100049DB4
:101C0400F0180782430A6022696169058610039807
:101C140047FFF709501A105817E0019C100EB5FF42
:101C2400F7F2FE00F0DCFEFFF7FDFE01BDE8142034
:101C340006F8B50F0014001D009E1001ABFF069EB0
:101C44002FE1FE0C0323FCFE9A400AFFF7E9FE0491
:101C54002024E02020305C101005E1FE01201CE06F
:101C6400B0B8300909D04548406820300078051ADA
:101C74001C08D4FE08200FE0B76034618604376185
:101C8400B1FA10053070022079E0302E12FA2210D9
:101C940001C3FE03961807F2BD08001040000910A6
:101CA40020182001003448426820321078062900A8
:101CB400D150709070117012695268130002D0886C
:101CC4004200D0904738200700000B1040FFFFFF70
:101CD400C3C01C059DFF802000036418057A64B40A
:101CE400100D62480021016041600020FFF7D5FF1C
:101CF400BB18321818213CA1E0323BE03271E052AB
:101D04008CE0D279E09271E0B20DE0B264E023019C
:101D140020E21201E23C0109E0314A045001FFF7DC
:101D240053E0255820042021705475626A167C6E95
:101D34002F46FEB4042FF0B57A05703F002120220F
:101D4400815481784D01C48980214905904A4E0B04
:101D5400904B0778002F10D0B34F7D192F683B406C
:101D64001E401BD1B14919408389194303799B044F
:101D74000B434079800518430DE0240428245001C6
:101D840009D1A9241407007980040843024311E906
:101D94001E190803161B041C010C430410031AA18A
:101DA400141C07A14B13400001184308DE031E381E
:101DB4001E061003012521009DDC1C0928226A430C
:101DC40080183430FFF7B2DE041803042DF3DB313E
:101DD400AC2DFE032C16964A52680F230F240C4098
:101DE4001419D4340D0601D5247800E0E4780C03EA
:101DF4001C0728204443101902E01900041406109B
:101E040000343030BD1C08CC1D000525D81F1440FB
:101E1400B40415B02D86062C422668206B81680810
:101E24000005D0300088470221C943884219D100F7
:101E340027FF43380031784909890712D1A849009E
:101E44002572780B2A0DD802A39B5C5B009F44008B
:101E5400BF060A940E944B6E94727D818C140320F9
:101E6400022FF9F2BD081C0F8FF8F2BD2668B17974
:101E7400F2791206120C1143F774062410C006C03E
:101E84000E022851D1307971790906090C0843EA08
:101E94002C049CFF002847D07E041C0F44D0B27849
:101EA400F3781B061B0C1A433ED12034224A03103C
:101EB400093AD14B0180218903324A04D2501308D4
:101EC400D0554CE3181C68224007D514004A02225E
:101ED4004303E0B212100A114319600027203005B1
:101EE4007020E0CE113E4006032A07D1B078F17885
:101EF4006C90070CD0042008E0042A111418010285
:101F0400D103888391FE12497C400200273800C81F
:101F1400127FC83C132022A25C042A0ED0052A1B7F
:101F2400D1002301221C3421000A02042228EE31AC
:101F3400A820020ED10D701C29D8239BFE16200464
:101F44002178052903D1102B1BFF521C01000040EE
:101F540030061DC0082E18200325741D6E07A40129
:101F640043050026763926D63326180509FF0100D5
:101F740029D088EC9626265620264C121CD14001E6
:101F8400009080225205AB4B540AC0263603B74852
:101F94000A061E090A061C0D6949009FC9190F6823
:101FA400384037000740B710061C05A74203D10389
:101FB400401A80041001002528EA1DB8031DE4031B
:101FC400180700F813FC00F8D3FF00244C020FF8A4
:101FD400FFFF74041DB006103E2400220021C843F4
:101FE4001D682E78F7063BD1F60939D0A978EE782A
:101FF4003606360C3143C9B2AE78EF783F063F0C53
:102004003E43360A012E04D017D3032E0ED004D338
:1020140013E0002924D15C6A0E08340520D19C6A9F
:10202400A278E1662C0E0A4306E09A7F914216DA02
:10203400DA6A890054582205500310D0A879E9F0CF
:102044001C06824204D3AA79E879380714040C02E6
:10205400430023212A2002FFF7F0FDA83538340875
:1020640025ED432168054F0026082E1C0C06D002DE
:10207400282AD012D35CE000BF801FD00637794AEB
:10208400501401104353201C01207804DE081C075F
:1020940005284DD1012038804340041C01205C04F4
:1020A4002A088126900540D109E005283D128008C0
:1020B400E17F884235D23E802CE01425861D1C0425
:1020C40024012829D0DC1604DC29B4100522D1010E
:1020D400E005291F0C29A81C010903C088072D9AB3
:1020E40009140D01D0BC4800E00B48C0581300038C
:1020F400409374168B7418098002C10F398000252F
:10210400002D064A1E02580921DA340283FD050017
:10211400861D8C033E70D403340FC0430A68202309
:10212400CB5C0024042B23D19578D3F034071D43D2
:102134008B6A07D09578D67A581535435E79B542BF
:102144005CD19078D5782D062D0C284308779078AB
:10215400D1C8200259798842F21003FFF7DCFD054B
:102164000650071FFD46E0052B45D1932E80022B18
:102174004308D00C50078D6A6D79AB4236D1906A12
:10218400B2184C100126D104421FFEFC48051C2243
:1021940049B14A5368282545435B19343320255DEA
:1021A4005D002D0FD19D786D011E78002E03D07F28
:1021B4004E7451DBE60632A908100D1B040D689D10
:1021C400430D60401C0428E3DB08D6200400F03DE6
:1021D400FD02E0F41F91FD9A0515D04402FFFFDFD4
:1021E400FF3C240289030A4A3A3C0308D06D48C0E4
:1021F40092071C0107D513E4031E1AE40352951237
:102204002DA4072D380B21381C05FFC306E170B53A
:102214008D74078C04DC310C688589AC0812068C3B
:102224001C0306D00669AE9808200C2E005A4833C9
:102234004301E084482B430361442D7E084F016031
:10224400E60A3C2B34367D4D6968012700242022A0
:10225400B25C002A07D0022A2ED057D3042A00D118
:1022640087E07BD3F1BD74703461EC60FFF76DFDE2
:102274000014052C020BD137702A063001A5FF3457
:10228400081C01A1FF68F20B2C02BAFFF1BD9806ED
:102294001602F84006012801D1706AE8601010099E
:1022A40072D0306900286FD1AC6070DC20026BD131
:1022B4001FE0101C0501D0347028E0E8DA09401052
:1022C40014D0002271690020EB689847EC60002864
:1022D4000CD06052756032716020048AFF20364C45
:1022E400E00A1E8590082C023454002392032548EA
:1022F400300365FC0320245472043A1D0C0CC007FF
:102304007801280CD17069A8602E10064EFC0220BA
:102314007070F1BD82F1021E1005CFFB042020363F
:10232400302010013948009C100102D40850234C7D
:10233400FFA820020BD005E00E32450E1204B6436E
:10234400A968B620032021745434543D44041D90DC
:102354000D114E40140F24274B05065D68264604D4
:10236400D50640AD19D4352D7803E00A1EED480A90
:102374001C0704D0586828214D43419C061E209C0C
:10238400061406596834312020085C3C1DCC031423
:102394000F09D12023CA544B6A180004D04A620A98
:1023A4006949201C0B984770BDFDE1814900224A10
:1023B40060D2B8041003A64A006B00F61C0300D0D8
:1023C400A54A4A2C071C0513E200BF002134AE07BE
:1023D4001C0D0A49A14A0A61021D02604A610A6889
:1023E4000750072D980A1F1843220B1306023A2F91
:1023F400704704072DDC046DAC08440A30B55AE478
:10240400F8B572B6944C2068E6181001D0401C2030
:102414006001279148816800290DD001689E100E43
:10242400D58168394001D007614168022182680A78
:102434000C12010C1A89821C11884A95680D4000FF
:10244400D1AEE0F9050D4209D05160406E052F0070
:10245400D05E061C0662FB2800814D05400C091C59
:102464000A06054208D07D494860606821AC08101E
:102474000DFFF754FB6D006D08F80205421ED0777E
:10248400183E0924033C01ABFB60CC08158213D130
:1024940002425241101C03022805D003E0084DD02B
:1024A40004100102D1061C12335E12B55E1C04B581
:1024B4004EA8041AD5840B14122141587368B34AE8
:1024C4001A40B30D13437360634A1268B5041401D0
:1024D400194384001C020A435F49F4051721542858
:1024E4001005FFF758FF2800B43C1809E80435D557
:1024F4007068B849014071121E55B0091C05544951
:1025040009680140FBBE0625103C05B94A4301D2C7
:102514001891C803B003F8DB00204E101C03B34825
:10252400F061296609100337613068B1441231DE65
:102534002002FFF738FF062727FF023001E1FA0ADD
:10254400D8123FAC12B7701009680304D500F01E0E
:10255400F82800BB0E140D280313D5B069F16901E6
:10256400400E0C00243E221EE06A05180135FF05CA
:102574006E1C0114FF2966072C0867F8641C7F0091
:10258400042CF0DB0C0B1C01F1BD14BC081007F883
:10259400B5AD488068AC49C9A83C1389B200910024
:1025A4002401258F4F009880B2284238D080202003
:1025B400B0051E12460A1AA3CC1EB1880B1C107952
:1025C4001889680840C00729D56001391801208896
:1025D4006036031C182C0FD17169B289824202D271
:1025E400801A891801E009180020716130611174A2
:1025F400091413FFF7EDFD12E009694903490B4182
:102604001A7161401A3061F0B61E8D30081C084002
:102614000138188168890402D5BA04100401816064
:10262400641C6DA23FBEDB08031002380C80080452
:10263400380218000860681D68091210B44C02FFC3
:10264400FF7FFF70091E05600F1FA278320F4C1127
:10265400212940002A68D10827984E00294DD030FE
:1026640060B068700C180332D1380305421401308D
:102674006020081C1090FE0500B06800903D421BCD
:10268400D03760BD430098490818020F0328002082
:102694001AB18010074242D00008181430AE0C3032
:1026A400010860ACBC2F8FFDFC061E0350052004FE
:1026B400012820D105E048126C4830033D42DDD1A9
:1026C400A4221C0366FE14E00228041E20840CD6F7
:1026D400A20430096161206101E0042803D1992C2E
:1026E400200468FD202005429010013D4025841CF3
:1026F40005B0684000810F030A0C100102219022EA
:102704001C074A42D10041181431012C051752FD0F
:10271400061D8410440E8B4952018A189060A069EA
:10272400A278520189184A1409401A606121690883
:102734001A2061E04C12E72CFC010472B680020FEF
:102744003C01FFF7FF8C081E7F8C08FC010000BFD2
:10275400770A0F2DBC031C05734920228001103019
:102764000B1C010868109E1131381FDFFF2E09165B
:1027740025F814010B4A89FA3651FA300170477E64
:10278400482F6649F40D1608BE1C02654802689677
:102794000312023E111E4DC0042C0201000100FC74
:1027A400081E70100F2C064C019021C9055D4A9C2F
:1027B4000E4C1602D05C4800190AE0564B1C192531
:1027C400681540802636062E4326607C0E6D9C06D6
:1027D4001C0570BDFFEFFFFF30FC0C100132FA51F5
:1027E400D43004514A0A4002211A3DB4064C02FB7B
:1027F400FF1008700B1001484DA03A2C0128184214
:102804004A044009438260474F38680143396016DF
:10281400100101683F3A1D500822053C274026BCA0
:10282400400496FF3040FAD020380586603868B0FE
:1028340043381C3001AAFF0220F20286201C0760E4
:1028440079FFF76EFFB004BDD4035C01F1BD08EC61
:102854000B2F2548980E1640022302227C1C0327C6
:102864004F264D28B0041C038021C90001920C108E
:1028740003B248802142961C0542602A683A4043CC
:1028840048041C032B60AE4E32B00C1C0D521E03C8
:10289400680B4001D1002AF9D1416880BA0D1004B7
:1028A40041602869022136226184200464FF00E02B
:1028B400761E0A50094BFF800701D4002EF7D10A77
:1028C4006E10010221812C1C018843280410300958
:1028D40007404802384328608804969A6F000090A5
:1028E400052D28034F1408980525905A040025380F
:1028F4001C02F0B585B07A111808900390012542A6
:10290400200227B3EE2D180D200A8C183434202110
:10291400615C002917D06C1401E28923B2301308DA
:10292400D0029B1A4392B20292AA4A51188A6802B0
:102934004307E0031230010392B5122C023A438A92
:10294400604C0D1C0DDADB029989B20191029909E0
:10295400041CD0C354042C090843C149C860019E17
:1029640001259A7C0D100221694344641C01E0890D
:1029740006DC055297D014010168A4A427B906A265
:1029840021461807E9DB0398000425D0B3781264C4
:1029940021100378020843B0DE765F4E1EAC8C052E
:1029A4001E5D8C05F40805420D1A43A94B1A6059A3
:1029B4004A521009A24800693843A14908610252E9
:1029C40010052AD0019E4F4800F4D2778C270DD0F1
:1029D4006A50058AFE400608D571961640662004A2
:1029E400E0898643B6B2941FE5DB2A0420121E0058
:1029F40090002E01D00028DDD18C48C06840218889
:102A0400438ADE932563504D76043202522381FEBD
:102A14003C100BEFDB01980090039EB6B22F4801E7
:102A24007EA2582E1D9C06300715D00098E1890817
:102A3400422134500547FE384009D0508623876030
:102A44001C2004884380B200902C230FD1B0320C98
:102A54002A123E2A700107D0542A81AE12CD721078
:102A640008401E01900098304302D07E1C0228C307
:102A7400D102DE152506100107D05DBC10012040EF
:102A84005BBA1E1054062703FE6E14010BD0572C9C
:102A94005407044056480461006806761652762CA2
:102AA4000605B0F0BD80E200E02C062802983A004A
:102AB40000442C02F8B507008A061E8766041C1120
:102AC400FFF7D8FE01259B4E0024224841682820A8
:102AD4006843085E0F1C01202282060A4C0C20D099
:102AE4002023C454436A1A001BD04462D2113E12FC
:102AF400D2111E0FE80B3C01490102D2111C03152F
:102B04004A5450C1EC0A322208200E090432688A61
:102B14004332600269416938009847D02FD1DB0005
:102B2400114A93E21DAC052C03704718B590721539
:102B34006C12B20B686C4623806B461B889B1A9BF5
:102B4400B28342F6D311040319F41C0710B5884963
:102B54000C68444304A4151C0DFFF7E2FF854824C8
:102B64001885488442F7D2A0D4061C05DAFF10BDAC
:102B7400834A5044161D80164C06600821116011CA
:102B84006901FA045DD0081007F0B501247B4D2ECD
:102B94006826161C03784E376927CA071817401889
:102BA40070603460600731000C3141609918091F6E
:102BB4000160083A91000F722F714A06041003C095
:102BC40020800370AC14031868F0602C641E3092EB
:102BD400102F000080032F10B506082F0A00D2160C
:102BE4001C0114001A6C0F10071B1D8024E4000440
:102BF40019A3BA1E8AB2071E5FBC081C0201200872
:102C04006050041002600A6902781C0610BD5A491B
:102C1400A64A8A6498051C1269C007FCD40020885F
:102C2400647047A34CA34FFA25ED000F8E061805D8
:102C34002C30FEF70AFDA0561C03FEF77BFC9E36E3
:102C4400031005FEF777FC20005018103BFEFCFE35
:102C5400F797FC0600FBD0FEF7E0FC2168622E32F9
:102C6400D0632E49D0642E1BD0692EE0D06C2E3157
:102C7400D06D2E48D06E2E42D0702E1ED0722E45AE
:102C8400D0742E13D0752E02D0761C100546E02089
:102C94001DFEF7DB3A2D9A17200400F076F8D6E7EC
:102CA4001212D21230010020F60C3007CCFC8249FB
:102CB400FE200005EF0E1C09C5FC80498048E9E7A9
:102CC4002900387208133EF82C4C0AFBBCE700219B
:102CD4007C48FFF748FF7B100B2C0BD120001030F1
:102CE400AFE720002030ACE70A16200218F8AAE764
:102CF400623001F9E76F4C5005F5E76E496F48F211
:102D04004614031BF86E486E521298322C02183087
:102D140093E7780A1E70800510090E006A4D28009A
:102D2400FEF78BFC31451001FEF7E5EE2002FAFBBD
:102D34000835142F81FC3C183C010C0062FC171A66
:102D440006A82C04F8FEFEF7F8FD3A033801F3FE5A
:102D540010D41E2468161EBC260E1C05E0B1FFFF0D
:102D6400214E004C081C010C402884161D3A0E2EDE
:102D7400EA88161C02F1B582B0D40C200197029C9B
:102D8400941803844202D04A3E1213BE2C10FFF75B
:102D940019FF4C4C2600903635004320FEF732FCD8
:102DA4009E03100317D04849307C2C1203FC0028E2
:102DB4001CD1F2E73D04002C05D1A94205D3280A11
:102DC400BE102004E5E7AC42E3D23E1C09FAFEA89B
:102DD400092418F7E73D483D220A1C0F890640D410
:102DE400401EDAD0F8E7FEF7C0FB6870686A0F1E71
:102DF4000B960A1403FEF706FC36321A387852355D
:102E0400081C01FEBD015E042DDA0E23FEBD741CF8
:102E14001706D10226FEF7A5FBA855761C862EF9C7
:102E2400D30098A978EA788A18FF3C151C0BC211C4
:102E3400120E121812121202801A81720D14052E2B
:102E4400008436310028A61C0750FC317809027230
:102E54007811A40B100110D0156A200CD1FB009836
:102E6400384088214843251808355A1EB8B613251A
:102E74004A2C069CFBB6E72B1D802202051006C1D6
:102E8400010298FFF773FE0C1C071C00900620E259
:102E9400E71A634C101D7003178813A9100381E00F
:102EA4000F0002041242041C0A40E00FFC41E00F30
:102EB4000400FA050C2C172C025002002030171FB6
:102EC400701720082C012D31012C17256C2D5A1751
:04000003000016C122
:00000001FF
